{
  "contractName": "Marketplace",
  "abi": [
    {
      "inputs": [
        {
          "internalType": "address",
          "name": "nftAddress",
          "type": "address"
        },
        {
          "internalType": "uint256",
          "name": "tokenId",
          "type": "uint256"
        }
      ],
      "name": "AlreadyListed",
      "type": "error"
    },
    {
      "inputs": [],
      "name": "NoProceeds",
      "type": "error"
    },
    {
      "inputs": [],
      "name": "NotApprovedForMarketPlace",
      "type": "error"
    },
    {
      "inputs": [
        {
          "internalType": "address",
          "name": "nftAddress",
          "type": "address"
        },
        {
          "internalType": "uint256",
          "name": "tokenId",
          "type": "uint256"
        }
      ],
      "name": "NotListed",
      "type": "error"
    },
    {
      "inputs": [],
      "name": "NotOwner",
      "type": "error"
    },
    {
      "inputs": [],
      "name": "PriceMustBeAboveZero",
      "type": "error"
    },
    {
      "inputs": [
        {
          "internalType": "address",
          "name": "nfAddress",
          "type": "address"
        },
        {
          "internalType": "uint256",
          "name": "tokenId",
          "type": "uint256"
        },
        {
          "internalType": "uint256",
          "name": "price",
          "type": "uint256"
        }
      ],
      "name": "PriceNotMet",
      "type": "error"
    },
    {
      "anonymous": false,
      "inputs": [
        {
          "indexed": true,
          "internalType": "address",
          "name": "buyer",
          "type": "address"
        },
        {
          "indexed": true,
          "internalType": "address",
          "name": "nftAddress",
          "type": "address"
        },
        {
          "indexed": true,
          "internalType": "uint256",
          "name": "tokenId",
          "type": "uint256"
        },
        {
          "indexed": false,
          "internalType": "uint256",
          "name": "price",
          "type": "uint256"
        }
      ],
      "name": "ItemBought",
      "type": "event"
    },
    {
      "anonymous": false,
      "inputs": [
        {
          "indexed": true,
          "internalType": "address",
          "name": "seller",
          "type": "address"
        },
        {
          "indexed": true,
          "internalType": "address",
          "name": "nftAddress",
          "type": "address"
        },
        {
          "indexed": true,
          "internalType": "uint256",
          "name": "tokenId",
          "type": "uint256"
        }
      ],
      "name": "ItemCanceled",
      "type": "event"
    },
    {
      "anonymous": false,
      "inputs": [
        {
          "indexed": true,
          "internalType": "address",
          "name": "seller",
          "type": "address"
        },
        {
          "indexed": true,
          "internalType": "address",
          "name": "nftAddress",
          "type": "address"
        },
        {
          "indexed": true,
          "internalType": "uint256",
          "name": "tokenId",
          "type": "uint256"
        },
        {
          "indexed": false,
          "internalType": "uint256",
          "name": "price",
          "type": "uint256"
        }
      ],
      "name": "ItemListed",
      "type": "event"
    },
    {
      "inputs": [
        {
          "internalType": "address",
          "name": "nftAddress",
          "type": "address"
        },
        {
          "internalType": "uint256",
          "name": "tokenId",
          "type": "uint256"
        },
        {
          "internalType": "uint256",
          "name": "price",
          "type": "uint256"
        }
      ],
      "name": "listItem",
      "outputs": [],
      "stateMutability": "nonpayable",
      "type": "function"
    },
    {
      "inputs": [
        {
          "internalType": "address",
          "name": "nftAddress",
          "type": "address"
        },
        {
          "internalType": "uint256",
          "name": "tokenId",
          "type": "uint256"
        }
      ],
      "name": "cancelListing",
      "outputs": [],
      "stateMutability": "nonpayable",
      "type": "function"
    },
    {
      "inputs": [
        {
          "internalType": "address",
          "name": "nftAddress",
          "type": "address"
        },
        {
          "internalType": "uint256",
          "name": "tokenId",
          "type": "uint256"
        }
      ],
      "name": "buytItem",
      "outputs": [],
      "stateMutability": "payable",
      "type": "function",
      "payable": true
    },
    {
      "inputs": [
        {
          "internalType": "address",
          "name": "nftAddress",
          "type": "address"
        },
        {
          "internalType": "uint256",
          "name": "tokenId",
          "type": "uint256"
        },
        {
          "internalType": "uint256",
          "name": "newPrice",
          "type": "uint256"
        }
      ],
      "name": "updateListing",
      "outputs": [],
      "stateMutability": "nonpayable",
      "type": "function"
    },
    {
      "inputs": [],
      "name": "withdrawProceeds",
      "outputs": [],
      "stateMutability": "nonpayable",
      "type": "function"
    },
    {
      "inputs": [
        {
          "internalType": "address",
          "name": "nftAddress",
          "type": "address"
        },
        {
          "internalType": "uint256",
          "name": "tokenId",
          "type": "uint256"
        }
      ],
      "name": "getListItem",
      "outputs": [
        {
          "components": [
            {
              "internalType": "uint256",
              "name": "price",
              "type": "uint256"
            },
            {
              "internalType": "address",
              "name": "seller",
              "type": "address"
            }
          ],
          "internalType": "struct Marketplace.Listing",
          "name": "",
          "type": "tuple"
        }
      ],
      "stateMutability": "view",
      "type": "function",
      "constant": true
    },
    {
      "inputs": [
        {
          "internalType": "address",
          "name": "seller",
          "type": "address"
        }
      ],
      "name": "getProceeds",
      "outputs": [
        {
          "internalType": "uint256",
          "name": "",
          "type": "uint256"
        }
      ],
      "stateMutability": "view",
      "type": "function",
      "constant": true
    }
  ],
  "bytecode": "0x608060405234801561001057600080fd5b506001600081905550611772806100286000396000f3fe6080604052600436106100705760003560e01c806389bfd38f1161004e57806389bfd38f1461010b5780639038e69314610134578063b2ddee061461014b578063f772adf11461017457610070565b806330cfeda914610075578063399fad71146100b257806348fcf68b146100ce575b600080fd5b34801561008157600080fd5b5061009c6004803603810190610097919061133a565b61019d565b6040516100a99190611380565b60405180910390f35b6100cc60048036038101906100c791906113c7565b6101e6565b005b3480156100da57600080fd5b506100f560048036038101906100f091906113c7565b610618565b6040516101029190611454565b60405180910390f35b34801561011757600080fd5b50610132600480360381019061012d919061146f565b6106e3565b005b34801561014057600080fd5b50610149610b3d565b005b34801561015757600080fd5b50610172600480360381019061016d91906113c7565b610cb0565b005b34801561018057600080fd5b5061019b6004803603810190610196919061146f565b610f90565b005b6000600260008373ffffffffffffffffffffffffffffffffffffffff1673ffffffffffffffffffffffffffffffffffffffff168152602001908152602001600020549050919050565b81816000600160008473ffffffffffffffffffffffffffffffffffffffff1673ffffffffffffffffffffffffffffffffffffffff1681526020019081526020016000206000838152602001908152602001600020604051806040016040529081600082015481526020016001820160009054906101000a900473ffffffffffffffffffffffffffffffffffffffff1673ffffffffffffffffffffffffffffffffffffffff1673ffffffffffffffffffffffffffffffffffffffff1681525050905060008160000151116102f25782826040517f6831488c0000000000000000000000000000000000000000000000000000000081526004016102e99291906114d1565b60405180910390fd5b600260005403610337576040517f08c379a000000000000000000000000000000000000000000000000000000000815260040161032e90611557565b60405180910390fd5b60026000819055506000600160008773ffffffffffffffffffffffffffffffffffffffff1673ffffffffffffffffffffffffffffffffffffffff1681526020019081526020016000206000868152602001908152602001600020604051806040016040529081600082015481526020016001820160009054906101000a900473ffffffffffffffffffffffffffffffffffffffff1673ffffffffffffffffffffffffffffffffffffffff1673ffffffffffffffffffffffffffffffffffffffff16815250509050806000015134101561044f57858582600001516040517f7c93456500000000000000000000000000000000000000000000000000000000815260040161044693929190611577565b60405180910390fd5b3460026000836020015173ffffffffffffffffffffffffffffffffffffffff1673ffffffffffffffffffffffffffffffffffffffff16815260200190815260200160002060008282546104a291906115dd565b92505081905550600160008773ffffffffffffffffffffffffffffffffffffffff1673ffffffffffffffffffffffffffffffffffffffff16815260200190815260200160002060008681526020019081526020016000206000808201600090556001820160006101000a81549073ffffffffffffffffffffffffffffffffffffffff021916905550508573ffffffffffffffffffffffffffffffffffffffff166342842e0e826020015133886040518463ffffffff1660e01b815260040161056c93929190611611565b600060405180830381600087803b15801561058657600080fd5b505af115801561059a573d6000803e3d6000fd5b50505050848673ffffffffffffffffffffffffffffffffffffffff163373ffffffffffffffffffffffffffffffffffffffff167f263223b1dd81e51054a4e6f791d45a4a1ddb4aadcd93a2dfd892615c3fdac18784600001516040516106009190611380565b60405180910390a45060016000819055505050505050565b6106206112a7565b600160008473ffffffffffffffffffffffffffffffffffffffff1673ffffffffffffffffffffffffffffffffffffffff1681526020019081526020016000206000838152602001908152602001600020604051806040016040529081600082015481526020016001820160009054906101000a900473ffffffffffffffffffffffffffffffffffffffff1673ffffffffffffffffffffffffffffffffffffffff1673ffffffffffffffffffffffffffffffffffffffff1681525050905092915050565b828233600083905060008173ffffffffffffffffffffffffffffffffffffffff16636352211e856040518263ffffffff1660e01b81526004016107269190611380565b602060405180830381865afa158015610743573d6000803e3d6000fd5b505050506040513d601f19601f82011682018060405250810190610767919061165d565b90508073ffffffffffffffffffffffffffffffffffffffff168373ffffffffffffffffffffffffffffffffffffffff16146107ce576040517f30cd747100000000000000000000000000000000000000000000000000000000815260040160405180910390fd5b8787336000600160008573ffffffffffffffffffffffffffffffffffffffff1673ffffffffffffffffffffffffffffffffffffffff1681526020019081526020016000206000848152602001908152602001600020604051806040016040529081600082015481526020016001820160009054906101000a900473ffffffffffffffffffffffffffffffffffffffff1673ffffffffffffffffffffffffffffffffffffffff1673ffffffffffffffffffffffffffffffffffffffff168152505090506000816000015111156108dc5783836040517f4a5568d50000000000000000000000000000000000000000000000000000000081526004016108d39291906114d1565b60405180910390fd5b60008a11610916576040517fe1abbfc500000000000000000000000000000000000000000000000000000000815260040160405180910390fd5b60008c90503073ffffffffffffffffffffffffffffffffffffffff168173ffffffffffffffffffffffffffffffffffffffff1663081812fc8e6040518263ffffffff1660e01b815260040161096b9190611380565b602060405180830381865afa158015610988573d6000803e3d6000fd5b505050506040513d601f19601f820116820180604052508101906109ac919061165d565b73ffffffffffffffffffffffffffffffffffffffff16146109f9576040517fb9f2dcad00000000000000000000000000000000000000000000000000000000815260040160405180910390fd5b60405180604001604052808c81526020013373ffffffffffffffffffffffffffffffffffffffff16815250600160008f73ffffffffffffffffffffffffffffffffffffffff1673ffffffffffffffffffffffffffffffffffffffff16815260200190815260200160002060008e81526020019081526020016000206000820151816000015560208201518160010160006101000a81548173ffffffffffffffffffffffffffffffffffffffff021916908373ffffffffffffffffffffffffffffffffffffffff1602179055509050508b8d73ffffffffffffffffffffffffffffffffffffffff163373ffffffffffffffffffffffffffffffffffffffff167fd547e933094f12a9159076970143ebe73234e64480317844b0dcb36117116de48e604051610b269190611380565b60405180910390a450505050505050505050505050565b6000600260003373ffffffffffffffffffffffffffffffffffffffff1673ffffffffffffffffffffffffffffffffffffffff16815260200190815260200160002054905060008111610bbb576040517fc4d8fa8700000000000000000000000000000000000000000000000000000000815260040160405180910390fd5b6000600260003373ffffffffffffffffffffffffffffffffffffffff1673ffffffffffffffffffffffffffffffffffffffff1681526020019081526020016000208190555060003373ffffffffffffffffffffffffffffffffffffffff1682604051610c26906116bb565b60006040518083038185875af1925050503d8060008114610c63576040519150601f19603f3d011682016040523d82523d6000602084013e610c68565b606091505b5050905080610cac576040517f08c379a0000000000000000000000000000000000000000000000000000000008152600401610ca39061171c565b60405180910390fd5b5050565b818133600083905060008173ffffffffffffffffffffffffffffffffffffffff16636352211e856040518263ffffffff1660e01b8152600401610cf39190611380565b602060405180830381865afa158015610d10573d6000803e3d6000fd5b505050506040513d601f19601f82011682018060405250810190610d34919061165d565b90508073ffffffffffffffffffffffffffffffffffffffff168373ffffffffffffffffffffffffffffffffffffffff1614610d9b576040517f30cd747100000000000000000000000000000000000000000000000000000000815260040160405180910390fd5b86866000600160008473ffffffffffffffffffffffffffffffffffffffff1673ffffffffffffffffffffffffffffffffffffffff1681526020019081526020016000206000838152602001908152602001600020604051806040016040529081600082015481526020016001820160009054906101000a900473ffffffffffffffffffffffffffffffffffffffff1673ffffffffffffffffffffffffffffffffffffffff1673ffffffffffffffffffffffffffffffffffffffff168152505090506000816000015111610ea75782826040517f6831488c000000000000000000000000000000000000000000000000000000008152600401610e9e9291906114d1565b60405180910390fd5b600160008b73ffffffffffffffffffffffffffffffffffffffff1673ffffffffffffffffffffffffffffffffffffffff16815260200190815260200160002060008a81526020019081526020016000206000808201600090556001820160006101000a81549073ffffffffffffffffffffffffffffffffffffffff02191690555050888a73ffffffffffffffffffffffffffffffffffffffff163373ffffffffffffffffffffffffffffffffffffffff167f9ba1a3cb55ce8d63d072a886f94d2a744f50cddf82128e897d0661f5ec62315860405160405180910390a450505050505050505050565b82826000600160008473ffffffffffffffffffffffffffffffffffffffff1673ffffffffffffffffffffffffffffffffffffffff1681526020019081526020016000206000838152602001908152602001600020604051806040016040529081600082015481526020016001820160009054906101000a900473ffffffffffffffffffffffffffffffffffffffff1673ffffffffffffffffffffffffffffffffffffffff1673ffffffffffffffffffffffffffffffffffffffff16815250509050600081600001511161109c5782826040517f6831488c0000000000000000000000000000000000000000000000000000000081526004016110939291906114d1565b60405180910390fd5b6002600054036110e1576040517f08c379a00000000000000000000000000000000000000000000000000000000081526004016110d890611557565b60405180910390fd5b6002600081905550858533600083905060008173ffffffffffffffffffffffffffffffffffffffff16636352211e856040518263ffffffff1660e01b815260040161112c9190611380565b602060405180830381865afa158015611149573d6000803e3d6000fd5b505050506040513d601f19601f8201168201806040525081019061116d919061165d565b90508073ffffffffffffffffffffffffffffffffffffffff168373ffffffffffffffffffffffffffffffffffffffff16146111d4576040517f30cd747100000000000000000000000000000000000000000000000000000000815260040160405180910390fd5b88600160008d73ffffffffffffffffffffffffffffffffffffffff1673ffffffffffffffffffffffffffffffffffffffff16815260200190815260200160002060008c815260200190815260200160002060000181905550898b73ffffffffffffffffffffffffffffffffffffffff163373ffffffffffffffffffffffffffffffffffffffff167fd547e933094f12a9159076970143ebe73234e64480317844b0dcb36117116de48c60405161128a9190611380565b60405180910390a450505050506001600081905550505050505050565b604051806040016040528060008152602001600073ffffffffffffffffffffffffffffffffffffffff1681525090565b600080fd5b600073ffffffffffffffffffffffffffffffffffffffff82169050919050565b6000611307826112dc565b9050919050565b611317816112fc565b811461132257600080fd5b50565b6000813590506113348161130e565b92915050565b6000602082840312156113505761134f6112d7565b5b600061135e84828501611325565b91505092915050565b6000819050919050565b61137a81611367565b82525050565b60006020820190506113956000830184611371565b92915050565b6113a481611367565b81146113af57600080fd5b50565b6000813590506113c18161139b565b92915050565b600080604083850312156113de576113dd6112d7565b5b60006113ec85828601611325565b92505060206113fd858286016113b2565b9150509250929050565b61141081611367565b82525050565b61141f816112fc565b82525050565b60408201600082015161143b6000850182611407565b50602082015161144e6020850182611416565b50505050565b60006040820190506114696000830184611425565b92915050565b600080600060608486031215611488576114876112d7565b5b600061149686828701611325565b93505060206114a7868287016113b2565b92505060406114b8868287016113b2565b9150509250925092565b6114cb816112fc565b82525050565b60006040820190506114e660008301856114c2565b6114f36020830184611371565b9392505050565b600082825260208201905092915050565b7f5265656e7472616e637947756172643a207265656e7472616e742063616c6c00600082015250565b6000611541601f836114fa565b915061154c8261150b565b602082019050919050565b6000602082019050818103600083015261157081611534565b9050919050565b600060608201905061158c60008301866114c2565b6115996020830185611371565b6115a66040830184611371565b949350505050565b7f4e487b7100000000000000000000000000000000000000000000000000000000600052601160045260246000fd5b60006115e882611367565b91506115f383611367565b925082820190508082111561160b5761160a6115ae565b5b92915050565b600060608201905061162660008301866114c2565b61163360208301856114c2565b6116406040830184611371565b949350505050565b6000815190506116578161130e565b92915050565b600060208284031215611673576116726112d7565b5b600061168184828501611648565b91505092915050565b600081905092915050565b50565b60006116a560008361168a565b91506116b082611695565b600082019050919050565b60006116c682611698565b9150819050919050565b7f5472616e73666572206661696c65640000000000000000000000000000000000600082015250565b6000611706600f836114fa565b9150611711826116d0565b602082019050919050565b60006020820190508181036000830152611735816116f9565b905091905056fea2646970667358221220c56afcfe69fd25414e4360d9ee4099e015c769520d76ed807087ea1708651af564736f6c63430008110033",
  "immutableReferences": {},
  "source": "// SPDX-License-Identifier: MIT\r\npragma solidity ^0.8.7;\r\n\r\nimport \"@openzeppelin/contracts/token/ERC721/IERC721.sol\";\r\nimport \"@openzeppelin/contracts/security/ReentrancyGuard.sol\";\r\n\r\n// ERRORES //\r\nerror PriceNotMet(address nfAddress, uint256 tokenId, uint256 price);\r\nerror PriceMustBeAboveZero();\r\nerror NotApprovedForMarketPlace();\r\nerror NotOwner();\r\nerror NoProceeds();\r\nerror AlreadyListed(address nftAddress, uint tokenId);\r\nerror NotListed(address nftAddress, uint tokenId);\r\n\r\n\r\ncontract Marketplace is ReentrancyGuard {\r\n\r\n  struct Listing {\r\n    uint price;\r\n    address seller;\r\n  }\r\n\r\n  // EVENTOS //\r\n  event ItemListed(\r\n    address indexed seller,\r\n    address indexed nftAddress,\r\n    uint indexed tokenId,\r\n    uint price\r\n  );\r\n\r\n  event ItemCanceled(\r\n    address indexed seller,\r\n    address indexed nftAddress,\r\n    uint indexed tokenId\r\n  );\r\n\r\n  event ItemBought(\r\n    address indexed buyer,\r\n    address indexed nftAddress,\r\n    uint indexed tokenId,\r\n    uint price\r\n  );\r\n\r\n  // MAPPINGS //\r\n\r\n  mapping(address => mapping(uint => Listing)) private s_listings;\r\n  mapping(address => uint256) private s_proceeds;\r\n\r\n  // MODIFIERS //\r\n\r\n  modifier isOwner(\r\n    address nftAddress,\r\n    uint tokenId,\r\n    address spender\r\n  ) {\r\n    IERC721 nft = IERC721(nftAddress);\r\n    address owner = nft.ownerOf(tokenId);\r\n    if (spender != owner) {\r\n      revert NotOwner();\r\n    }\r\n    _;\r\n  }\r\n\r\n  modifier notListed(\r\n    address nftAddress,\r\n    uint tokenId,\r\n    address owner\r\n  ) {\r\n    Listing memory listing = s_listings[nftAddress][tokenId];\r\n    if (listing.price > 0) {\r\n      revert AlreadyListed(nftAddress, tokenId);\r\n    }\r\n    _;\r\n  }\r\n\r\n  modifier isListed(\r\n    address nftAddress,\r\n    uint tokenId\r\n  ) {\r\n    Listing memory listing = s_listings[nftAddress][tokenId];\r\n    if (listing.price <= 0) {\r\n      revert NotListed(nftAddress, tokenId);\r\n    }\r\n    _;\r\n  }\r\n\r\n\r\n  // MAIN FUNCTIONS //\r\n\r\n  // 2: Que no est ya listado.  --> nftAddress, tokenId, msg.sender\r\n  function listItem(\r\n    address nftAddress,\r\n    uint tokenId,\r\n    uint price\r\n  ) external\r\n    isOwner(nftAddress, tokenId, msg.sender)\r\n    notListed(nftAddress, tokenId, msg.sender)\r\n  {\r\n    if (price <= 0) {\r\n      revert PriceMustBeAboveZero();\r\n    }\r\n    IERC721 nft = IERC721(nftAddress);\r\n    if(nft.getApproved(tokenId) != address(this)) {\r\n      revert NotApprovedForMarketPlace();\r\n    }\r\n    s_listings[nftAddress][tokenId] = Listing(price, msg.sender);\r\n    emit ItemListed(msg.sender, nftAddress, tokenId, price);\r\n  }\r\n\r\n  function cancelListing(address nftAddress, uint tokenId)\r\n    external\r\n    isOwner(nftAddress, tokenId, msg.sender)\r\n    isListed(nftAddress,tokenId)\r\n  {\r\n    delete(s_listings[nftAddress][tokenId]);\r\n    emit ItemCanceled(msg.sender, nftAddress, tokenId);\r\n  }\r\n\r\n  function buytItem(address nftAddress, uint tokenId)\r\n    external\r\n    payable\r\n    isListed(nftAddress, tokenId)\r\n    nonReentrant\r\n  {\r\n    Listing memory listedItem = s_listings[nftAddress][tokenId];\r\n\r\n    if(msg.value < listedItem.price) {\r\n      revert PriceNotMet(nftAddress, tokenId, listedItem.price);\r\n    }\r\n\r\n    s_proceeds[listedItem.seller] += msg.value;\r\n\r\n    delete(s_listings[nftAddress][tokenId]);\r\n    IERC721(nftAddress).safeTransferFrom(listedItem.seller, msg.sender, tokenId);\r\n    emit ItemBought(msg.sender, nftAddress, tokenId, listedItem.price);\r\n  }\r\n\r\n  function updateListing(\r\n    address nftAddress,\r\n    uint tokenId,\r\n    uint newPrice\r\n  )\r\n    external\r\n    isListed(nftAddress, tokenId)\r\n    nonReentrant\r\n    isOwner(nftAddress, tokenId, msg.sender)\r\n  {\r\n    s_listings[nftAddress][tokenId].price = newPrice;\r\n    emit ItemListed(msg.sender, nftAddress, tokenId, newPrice);\r\n  }\r\n\r\n  function withdrawProceeds() external {\r\n    uint proceeds = s_proceeds[msg.sender];\r\n    if (proceeds <= 0) {\r\n      revert NoProceeds();\r\n    }\r\n    s_proceeds[msg.sender] = 0;\r\n    (bool success, ) = payable(msg.sender).call{value: proceeds}(\"\");\r\n    require(success, \"Transfer failed\");\r\n\r\n  }\r\n\r\n  function getListItem(address nftAddress, uint tokenId)\r\n    external\r\n    view\r\n    returns (Listing memory)\r\n  {\r\n    return s_listings[nftAddress][tokenId];\r\n  }\r\n\r\n  function getProceeds(address seller) external view returns(uint){\r\n    return s_proceeds[seller];\r\n  }\r\n\r\n}\r\n",
  "sourcePath": "C:\\Users\\Gunner\\Desktop\\MASTER BLOCKCHAIN UDA\\MASTE UCAV\\TEMA 8\\code\\template-daap\\marketplace-api\\src\\smart-contracts\\contracts\\Marketplace.sol",
  "compiler": {
    "name": "solc",
    "version": "0.8.17+commit.8df45f5f.Emscripten.clang"
  },
  "schemaVersion": "3.4.10",
  "updatedAt": "2022-09-20T16:54:35.443Z",
  "networkType": "ethereum",
  "devdoc": {
    "kind": "dev",
    "methods": {},
    "version": 1
  },
  "userdoc": {
    "kind": "user",
    "methods": {},
    "version": 1
  }
}